:020000040800F2
:10000000000002203D170008091700080B17000820
:100010000D1700080F170008111700080000000056
:10002000000000000000000000000000131700089E
:10003000151700080000000017170008191700081E
:100040008D1700088D1700088D1700088D17000800
:100050008D1700088D1700088D1700088D170008F0
:100060008D1700088D1700088D1700088D170008E0
:100070008D1700088D1700088D1700088D170008D0
:100080008D1700088D1700088D1700088D170008C0
:100090008D1700088D1700088D1700088D170008B0
:1000A0008D1700088D1700088D1700088D170008A0
:1000B0008D1700088D1700088D1700088D17000890
:1000C0008D1700088D1700088D1700088D17000880
:1000D0008D1700088D1700088D1700088D17000870
:1000E0008D1700088D1700088D1700088D17000860
:1000F0008D1700088D1700088D1700088D17000850
:100100008D1700088D1700088D1700088D1700083F
:100110008D1700088D1700088D1700088D1700082F
:100120008D1700088D1700088D1700088D1700081F
:100130008D1700088D1700088D1700088D1700080F
:100140008D1700088D1700088D1700088D170008FF
:100150008D1700088D1700088D1700088D170008EF
:100160008D1700088D1700088D1700088D170008DF
:100170008D1700088D1700088D170008000000007B
:080180008D1700088D1700081F
:1001880010B5054C237833B9044B13B10448AFF3C9
:1001980000800123237010BD0C0000200000000027
:1001A800E817000808B5034B1BB103490348AFF330
:1001B800008008BD0000000010000020E8170008BB
:1001C80053B94AB9002908BF00281CBF4FF0FF31B6
:1001D8004FF0FF3000F072B9ADF1080C6DE904CEB4
:1001E80000F006F8DDF804E0DDE9022304B070470A
:1001F8002DE9F047089E04468846002B4BD18A42D9
:10020800154667D9B2FA82F24AB1C2F1200701FA5B
:1002180002F320FA07F7954047EA030894404FEAAB
:10022800154E230CB8FBFEF71FFA85FC0EFB17884A
:1002380043EA084307FB0CF1994209D9EB1807F187
:10024800FF3080F01B81994240F21881023F2B4415
:100258005B1AA4B2B3FBFEF00EFB103344EA03446E
:1002680000FB0CFCA44509D92C1900F1FF3380F0E0
:100278000781A44540F2048102382C4440EA074033
:10028800A4EB0C0400271EB1D4400023C6E90043A8
:100298003946BDE8F0878B4209D9002E00F0EB8083
:1002A8000027C6E9000138463946BDE8F087B3FAA9
:1002B80083F7002F47D18B4202D3824200F2FA80A3
:1002C800841A61EB030301209846002EE0D0C6E9AA
:1002D8000048DDE702B9FFDEB2FA82F2002A40F0F8
:1002E8008F80491B4FEA154E1FFA85F80127B1FB8D
:1002F800FEFC230C0EFB1C1143EA014308FB0CF126
:10030800994207D9EB180CF1FF3002D2994200F25A
:10031800CD808446591AA3B2B1FBFEF00EFB10142F
:1003280043EA044408FB00F8A04507D92C1900F15A
:10033800FF3302D2A04500F2B6801846A4EB0804A9
:1003480040EA0C409FE7C7F1200CBB4022FA0CFEA4
:100358004EEA030E01FA07F420FA0CF521FA0CF321
:100368004FEA1E482543B3FBF8F92C0C08FB193358
:100378001FFA8EFA44EA034309FB0AF49C4202FA84
:1003880007F200FA07F10BD91EEB030309F1FF305E
:1003980080F087809C4240F28480A9F1020973446E
:1003A8001B1BADB2B3FBF8F008FB103345EA03445E
:1003B80000FB0AFAA24508D91EEB040400F1FF333A
:1003C8006BD2A24569D90238744440EA0940A0FBBF
:1003D8000289A4EB0A044C45C2464B4654D351D07B
:1003E800002E69D0B1EB0A0564EB030404FA0CFC97
:1003F800FD40FC404CEA0505C6E90054002747E7E4
:10040800C2F1200320FA03F7954001FA02F021FA1D
:1004180003F34FEA154E3843010CB3FBFEF71FFAFE
:1004280085F80EFB173341EA034107FB08F38B42BB
:1004380004FA02F407D9691807F1FF3C2FD28B425E
:100448002DD9023F2944CB1A81B2B3FBFEF00EFB33
:10045800103341EA034100FB08F38B4207D96918BE
:1004680000F1FF3C17D28B4215D902382944C91A2A
:1004780040EA07473BE73746304609E70746E7E6DD
:100488001846FBE64145ABD2B8EB020A69EB0E020F
:1004980001381346A4E76046E9E7184695E767463A
:1004A800D1E781467CE702382C4447E7ACF1020CDF
:1004B8002B442FE7384608E73746E9E6704700BF80
:1004C80010B504460E4B18784FF47A73B3FBF0F36B
:1004D8000C4A1068B0FBF3F000F09CF868B90F2CD8
:1004E80001D901200AE0002221464FF0FF3000F038
:1004F8005DF8034B5C60002000E0012010BD00BFE8
:10050800000000200800002008B50B4B1A6842F4D0
:1005180000721A601A6842F480621A601A6842F41B
:1005280080721A60032000F02FF80020FFF7C8FF40
:1005380001F054F8002008BD003C0240034A11684D
:10054800034B1B780B441360704700BF2800002042
:1005580000000020014B1868704700BF28000020E9
:1005680038B50446FFF7F6FF0546B4F1FF3F02D061
:10057800044B1B781C44FFF7EDFF401BA042FAD345
:1005880038BD00BF00000020074AD36823F4E063A9
:100598001B041B0C000200F4E060184340F0BF602D
:1005A80040F40030D060704700ED00E030B4174BE5
:1005B800DB68C3F30223C3F10704042C28BF042417
:1005C8001D1D062D18D9033B4FF0FF3505FA04F41D
:1005D80021EA0401994005FA03F322EA03031943C7
:1005E80000280BDB0901C9B200F1604000F5614049
:1005F80080F8001330BC70470023E5E700F00F00D7
:100608000901C9B2024B1954F4E700BF00ED00E03C
:1006180014ED00E00138B0F1807F0AD2064B586033
:10062800064AF02182F823100020986007221A60F9
:1006380070470120704700BF10E000E000ED00E0C7
:1006480000230F2B00F2D780F0B583B039E00722E2
:1006580000E00022AA403A430234674D45F82420BE
:10066800664A1468F24302EA04054F6817F4803FAB
:1006780001D046EA0405614C2560646802EA040575
:100688004F6817F4003F01D046EA04055B4C6560EB
:10069800A46802EA04054F6817F4801F01D046EAEF
:1006A8000405564CA560E46822404D6815F4001F07
:1006B80001D046EA0402514CE26001330F2B00F2EC
:1006C800988001229A400C6804EA0206B242F4D1EA
:1006D8004C68651E012D03D9112C01D0122C12D1A2
:1006E80085685F000324BC4025EA0405CC68BC404B
:1006F8002C438460456825EA02054C68C4F300125F
:100708009A402A434260C4685F000322BA40D24339
:1007180014408D68BD402543C5604C68022C01D04B
:10072800122C13D1DD08083550F825E003F0070432
:100738004FEA840C0F2404FA0CF42EEA040E0C6918
:1007480004FA0CF444EA0E0440F8254004682240F8
:100758004C6804F00304BC40224302604A6812F06B
:10076800805FAAD000220192254A546C44F4804448
:100778005464526C02F480420192019A9C08A51CB0
:100788001D4A52F8257003F0030295000F22AA4073
:1007980027EA02071B4A90423FF45BAF02F58062EA
:1007A80090421AD002F58062904218D002F5806219
:1007B800904216D002F58062904214D002F5806211
:1007C800904212D002F58062904210D002F5806209
:1007D80090423FF43CAF08223CE701223AE702226C
:1007E80038E7032236E7042234E7052232E70622F7
:1007F80030E703B0F0BD704700380140003C0140CD
:10080800003802400000024012B9090481617047B3
:1008180081617047436931EA030301D08161704700
:100828000904816170470000002800F0C880F8B50D
:10083800044690F83D30002B75D0242384F83D30D1
:100848002268136823F0010313602268136843F4D5
:10085800004313602268136823F40043136000F018
:10086800D5FB6268584B9A4262D8584B98428CBF65
:1008780000230123002B40F0A480554BA3FB002349
:100888009B0C21684A6822F03F021A434A60256897
:100898002A6A22F03F0266684B498E424ED80133DD
:1008A80013432B622568E96921F44F4121F0FF01C8
:1008B8006368454A93424BD801385B00B0FBF3F3B9
:1008C8000133C3F30B03042B38BF04230B43EB6141
:1008D80021680B6823F0C003E269206A02431343CE
:1008E8000B6021688B6823F4034323F0FF0322691C
:1008F800E068024313438B602168CB6823F0FF0351
:100908006269A06902431343CB602268136843F00D
:100918000103136000202064202384F83D30206305
:1009280084F83E00F8BD80F83C3000F077FE84E79C
:10093800284B98428CBF002301239BE74FF4967104
:1009480001FB03F32449A1FB03139B090133A7E728
:10095800A268BAB9461E03EB4307B6FBF7F60136A1
:10096800C6F30B06B6FA86F6760936BBC2B9013865
:1009780003EB4303B0FBF3F30133C3F30B0242F47D
:100988000043A3E7461E03EB830707EB8707B6FB85
:10099800F7F60136C6F30B06B6FA86F67609E4E7EB
:1009A800013803EB830303EB8303B0FBF3F201325B
:1009B800C2F30B0242F4404388E7012386E7012093
:1009C80070470120AEE700BFA08601007F841E00AB
:1009D80083DE1B43FF083D00D34D6210002800F062
:1009E800E48170B582B00446036813F0010F3BD070
:1009F800A74B9B6803F00C03042B2CD0A44B9B68DB
:100A080003F00C03082B21D06368B3F5803F4FD067
:100A1800B3F5A02F52D09E4B1A6822F480321A6088
:100A28001A6822F480221A606368002B50D0FFF7FE
:100A380091FD0546964B1B6813F4003F14D1FFF750
:100A480089FD401B6428F5D90320B3E1904B5B680E
:100A580013F4800FD8D08E4B1B6813F4003F03D0DB
:100A68006368002B00F0A381236813F0020F55D0B0
:100A7800874B9B6813F00C0F3ED0854B9B6803F0A7
:100A88000C03082B33D0E368002B68D0814B01227C
:100A98001A60FFF75FFD05467D4B1B6813F0020FD8
:100AA80054D1FFF757FD401B0228F5D9032081E1F7
:100AB800774A136843F480331360B5E7744B1A68B8
:100AC80042F480221A601A6842F480321A60ABE756
:100AD800FFF740FD05466E4B1B6813F4003FC3D07B
:100AE800FFF738FD401B6428F5D9032062E1684B05
:100AF8005B6813F4800FC6D1654B1B6813F0020FB7
:100B080004D0E368012B01D0012053E1604A136847
:100B180023F0F803216943EAC1031360236813F043
:100B2800080F40D0636963B35B4B01221A60FFF77B
:100B380011FD0546564B5B6F13F0020F33D1FFF7DB
:100B480009FD401B0228F5D9032033E1504A1368F8
:100B580023F0F803216943EAC1031360DEE74D4B34
:100B680000221A60FFF7F6FC0546494B1B6813F094
:100B7800020FD3D0FFF7EEFC401B0228F5D9032063
:100B880018E1454B00221A60FFF7E4FC0546404B8C
:100B98005B6F13F0020F06D0FFF7DCFC401B022846
:100BA800F5D9032006E1236813F0040F79D0384BF8
:100BB8001B6C13F0805F33D100230193344B1A6C04
:100BC80042F080521A641B6C03F080530193019B1E
:100BD8000125324B1B6813F4807F23D0A368012BB7
:100BE80034D0052B38D02A4B1A6F22F001021A672D
:100BF8001A6F22F004021A67A368002B36D0FFF799
:100C0800A9FC0646224B1B6F13F0020F48D1FFF7D1
:100C1800A1FC801B41F288339842F3D90320C9E034
:100C28000025D6E71D4A136843F480731360FFF765
:100C380091FC0646194B1B6813F4807FCED1FFF751
:100C480089FC801B0228F5D90320B3E0104A136FF2
:100C580043F001031367CFE70D4B1A6F42F004020C
:100C68001A671A6F42F001021A67C5E7FFF772FCAC
:100C78000646074B1B6F13F0020F11D0FFF76AFCF3
:100C8800801B41F288339842F3D9032092E000BFD9
:100C98000038024000004742800E47420070004082
:100CA800EDB9A369002B00F08480454A926802F0F0
:100CB8000C02082A51D0022B17D0424B00221A608E
:100CC800FFF748FC04463E4B1B6813F0007F42D0F8
:100CD800FFF740FC001B0228F5D903206AE0384AD8
:100CE800136C23F080531364DBE7364B00221A6041
:100CF800FFF730FC0546324B1B6813F0007F06D027
:100D0800FFF728FC401B0228F5D9032052E0E369CD
:100D1800226A1343626A43EA8213A26A5208013ABA
:100D280043EA0243E26A43EA0263254A5360254BD9
:100D380001221A60FFF70EFC0446214B1B6813F0D2
:100D4800007F06D1FFF706FC001B0228F5D9032017
:100D580030E000202EE000202CE0012B2CD0184B96
:100D68009B6803F48001E269914201D0012021E0EF
:100D780003F03F02216A8A4201D001201AE0616A29
:100D880047F6C0721A408A4201D0012012E003F4EB
:100D98004032A16A8A4201D001200BE003F070635F
:100DA800E26A93420AD0012004E001207047012042
:100DB80000E0002002B070BD0120FBE70020F9E749
:100DC8000038024060004742324B9B6803F00C0336
:100DD800042B5CD0082B01D02F4870472DE9F04B2D
:100DE8002C4B5A6802F03F025B6813F4800F2BD03B
:100DF800284B5B68C3F388131E4600275C01002557
:100E0800E41A65EB0705A90141EA9461A001001BFA
:100E180061EB0501CB0043EA5073C400A01943EB12
:100E280007014B0243EAD0534402204619460023E7
:100E3800FFF7C6F9174B5B68C3F3014301335B0047
:100E4800B0FBF3F0BDE8F08B124B5B68C3F388137B
:100E58001E4600275C010025E41A65EB0705A90179
:100E680041EA9461A001001B61EB0501CB0043EA54
:100E78005073C400A01943EB07018B0243EA905357
:100E88008402204619460023FFF79AF9D2E703485F
:100E9800704700BF003802400024F40000127A00B6
:100EA800002800F09E8070B50446504B1B6803F084
:100EB8000F038B4209D2CBB24C4A1370136803F06C
:100EC8000F038B4201D0012070BD236813F0020F7D
:100ED80017D013F0040F04D0454A936843F4E05345
:100EE8009360236813F0080F04D0414A936843F4D1
:100EF800604393603E4A936823F0F003A06803437D
:100F080093600D46236813F0010F32D06368012BFC
:100F180021D09A1E012A25D9354A126812F0020FEB
:100F280061D033498A6822F0030213438B60FFF7CC
:100F380011FB06462E4B9B6803F00C036268B3EB6B
:100F4800820F16D0FFF706FB801B41F288339842C8
:100F5800F0D90320B8E7264A126812F4003FE0D11E
:100F68000120B1E7224A126812F0007FD9D101208E
:100F7800AAE71E4B1B6803F00F03AB4209D9EAB27C
:100F88001A4B1A701B6803F00F03AB4201D0012003
:100F98009AE7236813F0040F06D0154A936823F4E0
:100FA800E053E1680B439360236813F0080F07D000
:100FB8000F4A936823F46043216943EAC1039360AD
:100FC800FFF702FF0A4B9B68C3F30313094AD35C7C
:100FD800D840094B1860094B1868FFF771FA0020D0
:100FE80072E70120704701206EE700BF003C024015
:100FF8000038024000180008080000200400002003
:10100800014B1868704700BF0800002008B5FFF7BB
:10101800F7FF044B9B68C3F38223034AD35CD84091
:1010280008BD00BF003802401018000808B5FFF7D7
:10103800E7FF044B9B68C3F34233034AD35CD840B1
:1010480008BD00BF00380240101800082DE9F04B19
:1010580004460268136923F44053C1680B431361C3
:1010680083680269134342691343C2691A430168DA
:10107800CB6823F4164323F00C031343CB600268B8
:10108800536923F4407381690B435361C369B3F512
:10109800004F3BD00368714A934200F0AB8002F5E1
:1010A8008062934200F0A680FFF7B0FF4FF000097E
:1010B800061849EB090716EB000B47EB090C4FEA3A
:1010C800CC0343EA5B734FEACB0293469C466368C2
:1010D8009A009B0F10EB0B0049EB0C01FFF770F81F
:1010E8005F4DA5FB00325109642202FB1102130176
:1010F8003233A5FB03235B0903F0F00202EB011274
:1011080003F00F03216813448B60A4E00368534A7B
:10111800934239D002F58062934235D0FFF776FFCB
:1011280083464FF0000C06184CEB0C0716EB000832
:1011380047EB0C094FEAC90343EA58734FEAC80260
:101148009046994662680021921841EB01031BEB17
:1011580008004CEB0901FFF733F8414DA5FB0032BD
:101168005109642202FB1102D3003233A5FB032389
:101178005B095A0002F4F87202EB011203F007034C
:10118800216813448B6066E0FFF750FF80464FF0FC
:101198000009061849EB090716EB000B47EB090C89
:1011A8004FEACC0343EA5B734FEACB0293469C4673
:1011B80062680021921841EB010318EB0B0049EB20
:1011C8000C01FEF7FDFF264DA5FB003251096422F4
:1011D80002FB1102D3003233A5FB03235B095A003B
:1011E80002F4F87202EB011203F0070321681344BA
:1011F8008B6030E0FFF71AFF4FF00009061849EB43
:10120800090716EB000B47EB090C4FEACC0343EA3E
:101218005B734FEACB0293469C4663689A009B0F28
:1012280010EB0B0049EB0C01FEF7CAFF0C4DA5FBB8
:1012380000325109642202FB110213013233A5FB6B
:1012480003235B0903F0F00202EB011203F00F0322
:10125800216813448B60BDE8F08B00BF001001408B
:101268001F85EB5158B310B5044690F839300BB3CD
:10127800242384F839302268D36823F40053D360D8
:101288002046FFF7E3FE2268136923F490431361B5
:101298002268536923F02A0353612268D36843F410
:1012A8000053D3600020E063202384F8393084F8A9
:1012B8003A3010BD80F8383000F0E8F9D8E701205E
:1012C800704700002DE9F04F8DB000240794089472
:1012D80009940A940B940194704B1A6B42F0100213
:1012E8001A631A6B02F010020192019A02941A6BA7
:1012F80042F004021A631A6B02F004020292029A84
:1013080003941A6B42F080021A631A6B02F080028F
:101318000392039A04941A6B42F001021A631A6B3F
:1013280002F001020492049A05941A6B42F0020238
:101338001A631A6B02F002020592059A06941A6B58
:1013480042F008021A631B6B03F008030693069B1E
:10135800224608215248FFF757FADFF85481012244
:1013680011464046FFF750FA22464FF210014D4809
:10137800FFF74AFA082507950127089709940A9460
:1013880007A94748FFF75CF90797089709940A9453
:1013980007A94046FFF754F90795022508950994CF
:1013A8000A944FF00509CDF82C9007A94046FFF79D
:1013B80047F90797DFF8FCA0CDF820A009943A4E2A
:1013C80007A93046FFF73CF91023079308950994BD
:1013D8000A944FF0060BCDF82CB007A93046FFF75A
:1013E8002FF9E0230793089509940A94CDF82C90D7
:1013F80007A93046FFF724F90423079308940994B2
:1014080007A92A48FFF71CF94FF48063079308954A
:1014180009940A94CDF82C9007A92448FFF710F9ED
:101428004FF210030793089709940A9407A91D48D7
:10143800FFF706F94FF4A4530793089509940A9403
:10144800CDF82CB007A94046FFF7FAF84FF400731F
:1014580007930894099407A93046FFF7F1F84FF469
:10146800E0530793089509940A940A230B9307A954
:101478003046FFF7E5F8202307930894099407A955
:101488000848FFF7DDF80795CDF820A0099407A9CB
:101498000348FFF7D5F80DB0BDE8F08F00380240DB
:1014A80000100240000C024000000240000402400C
:1014B800000802400000121008B50948094B0360F3
:1014C800094B436000238360C3604FF4804202618C
:1014D80043618361C3610362FFF7A6F908BD00BFDA
:1014E8002C00002000540040A086010008B50848E0
:1014F800084B03604FF4E133436000238360C3600B
:1015080003610C2242618361C361FFF7ABFE08BD32
:10151800900000200044004030B595B030220021F2
:1015280008A800F055F9002403940494059406943F
:10153800079401941B4B1A6C42F080521A641B6C7E
:1015480003F080530193019B0294174B1A6842F4ED
:1015580080421A601B6803F480430293029B0225B1
:10156800089501230B9310230C930E950F940823D1
:10157800109332231193042312930723139308A87B
:10158800FFF72CFA0F230393049505944FF4C053E7
:1015980006934FF4A0530793214603A8FFF780FC56
:1015A80015B030BD003802400070004008B5FEF7A5
:1015B800ABFFFFF7B1FFFFF785FEFFF77DFFFFF7F2
:1015C80095FF4FF480510448FFF724F94FF4FA705F
:1015D800FEF7C6FFF5E700BF000C024000B583B078
:1015E800002100910C4B5A6C42F480425A645A6CA8
:1015F80002F480420092009A01911A6C42F08052E3
:101608001A641B6C03F080530193019B0720FEF7BB
:10161800BBFF03B05DF804FB0038024030B589B069
:101628000023039304930593069307930268144BCE
:101638009A4201D009B030BD00250195114C236BA9
:1016480043F002032363236B03F002030193019B1E
:101658004FF4107303931223049301230593042377
:10166800079303A90848FEF7EBFF0295236C43F4A0
:1016780000132364236C03F400130293029BD9E73D
:1016880000540040003802400004024000B589B010
:101698000023039304930593069307930268164B5C
:1016A8009A4202D009B05DF804FB0021019103F5CC
:1016B800FA331A6C42F400321A641A6C02F40032DB
:1016C8000192019A02911A6B42F001021A631B6B94
:1016D80003F001030293029B0C2303930223049358
:1016E80001230593032306930723079303A90348BC
:1016F800FEF7A6FFD6E700BF004400400000024006
:101708007047FEE7FEE7FEE7FEE770477047704761
:1017180008B5FEF713FF08BD054BD3F8882042F43F
:101728007002C3F888204FF000629A60704700BFCB
:1017380000ED00E0DFF834D0002103E00C4B5B58EB
:10174800435004310B480C4B42189A42F6D30B4ACB
:1017580002E0002342F8043B094B9A42F9D3FFF711
:10176800DBFF00F011F8FFF721FF704700000220AF
:1017780028180008000000200C0000200C000020A1
:10178800D0000020FEE7000070B50D4E0D4CA41BE4
:10179800A4100025A54209D10B4E0C4C00F020F8EE
:1017A800A41BA4100025A54205D170BD56F825300C
:1017B80098470135EEE756F8253098470135F2E7A6
:1017C800201800082018000820180008241800080D
:1017D80002440346934200D1704703F8011BF9E71E
:1017E800F8B500BFF8BC08BC9E467047F8B500BF06
:0817F800F8BC08BC9E467047D6
:1018000000000000000000000102030406070809B0
:081810000000000001020304C6
:08181800E0E9FF7F0100000080
:04182000AD0100080E
:04182400890100082E
:0C18280001000000100000000024F4008B
:040000050800173D9B
:00000001FF
