:020000040800F2
:1000000000000220311F0008FD1E0008FF1E00082E
:10001000011F0008031F0008051F00080000000062
:10002000000000000000000000000000071F0008A2
:10003000091F0008000000000B1F00080D1F00082A
:10004000811F0008811F0008811F0008811F000810
:10005000811F0008811F0008811F0008811F000800
:10006000811F0008811F0008811F0008811F0008F0
:10007000811F0008811F0008811F0008811F0008E0
:10008000811F0008811F0008811F0008811F0008D0
:10009000811F0008811F0008811F0008811F0008C0
:1000A000811F0008811F0008811F0008811F0008B0
:1000B000811F0008811F0008811F0008811F0008A0
:1000C000811F0008811F0008811F0008811F000890
:1000D000811F0008811F0008811F0008811F000880
:1000E000811F0008811F0008811F0008811F000870
:1000F000811F0008811F0008811F0008811F000860
:10010000811F0008811F0008811F0008811F00084F
:10011000811F0008811F0008811F0008811F00083F
:10012000811F0008811F0008811F0008811F00082F
:10013000811F0008811F0008811F0008811F00081F
:10014000811F0008811F0008811F0008811F00080F
:10015000811F0008811F0008811F0008811F0008FF
:10016000811F0008811F0008811F0008811F0008EF
:10017000811F0008811F0008811F00080000000087
:08018000811F0008811F000827
:1001880010B5054C237833B9044B13B10448AFF3C9
:1001980000800123237010BD0C0000200000000027
:1001A8008C20000808B5034B1BB103490348AFF383
:1001B800008008BD00000000100000208C2000080E
:1001C80053B94AB9002908BF00281CBF4FF0FF31B6
:1001D8004FF0FF3000F072B9ADF1080C6DE904CEB4
:1001E80000F006F8DDF804E0DDE9022304B070470A
:1001F8002DE9F047089E04468846002B4BD18A42D9
:10020800154667D9B2FA82F24AB1C2F1200701FA5B
:1002180002F320FA07F7954047EA030894404FEAAB
:10022800154E230CB8FBFEF71FFA85FC0EFB17884A
:1002380043EA084307FB0CF1994209D9EB1807F187
:10024800FF3080F01B81994240F21881023F2B4415
:100258005B1AA4B2B3FBFEF00EFB103344EA03446E
:1002680000FB0CFCA44509D92C1900F1FF3380F0E0
:100278000781A44540F2048102382C4440EA074033
:10028800A4EB0C0400271EB1D4400023C6E90043A8
:100298003946BDE8F0878B4209D9002E00F0EB8083
:1002A8000027C6E9000138463946BDE8F087B3FAA9
:1002B80083F7002F47D18B4202D3824200F2FA80A3
:1002C800841A61EB030301209846002EE0D0C6E9AA
:1002D8000048DDE702B9FFDEB2FA82F2002A40F0F8
:1002E8008F80491B4FEA154E1FFA85F80127B1FB8D
:1002F800FEFC230C0EFB1C1143EA014308FB0CF126
:10030800994207D9EB180CF1FF3002D2994200F25A
:10031800CD808446591AA3B2B1FBFEF00EFB10142F
:1003280043EA044408FB00F8A04507D92C1900F15A
:10033800FF3302D2A04500F2B6801846A4EB0804A9
:1003480040EA0C409FE7C7F1200CBB4022FA0CFEA4
:100358004EEA030E01FA07F420FA0CF521FA0CF321
:100368004FEA1E482543B3FBF8F92C0C08FB193358
:100378001FFA8EFA44EA034309FB0AF49C4202FA84
:1003880007F200FA07F10BD91EEB030309F1FF305E
:1003980080F087809C4240F28480A9F1020973446E
:1003A8001B1BADB2B3FBF8F008FB103345EA03445E
:1003B80000FB0AFAA24508D91EEB040400F1FF333A
:1003C8006BD2A24569D90238744440EA0940A0FBBF
:1003D8000289A4EB0A044C45C2464B4654D351D07B
:1003E800002E69D0B1EB0A0564EB030404FA0CFC97
:1003F800FD40FC404CEA0505C6E90054002747E7E4
:10040800C2F1200320FA03F7954001FA02F021FA1D
:1004180003F34FEA154E3843010CB3FBFEF71FFAFE
:1004280085F80EFB173341EA034107FB08F38B42BB
:1004380004FA02F407D9691807F1FF3C2FD28B425E
:100448002DD9023F2944CB1A81B2B3FBFEF00EFB33
:10045800103341EA034100FB08F38B4207D96918BE
:1004680000F1FF3C17D28B4215D902382944C91A2A
:1004780040EA07473BE73746304609E70746E7E6DD
:100488001846FBE64145ABD2B8EB020A69EB0E020F
:1004980001381346A4E76046E9E7184695E767463A
:1004A800D1E781467CE702382C4447E7ACF1020CDF
:1004B8002B442FE7384608E73746E9E6704700BF80
:1004C80010B504460E4B18784FF47A73B3FBF0F36B
:1004D8000C4A1068B0FBF3F000F09CF868B90F2CD8
:1004E80001D901200AE0002221464FF0FF3000F038
:1004F8005DF8034B5C60002000E0012010BD00BFE8
:10050800000000200800002008B50B4B1A6842F4D0
:1005180000721A601A6842F480621A601A6842F41B
:1005280080721A60032000F02FF80020FFF7C8FF40
:1005380001F04EFC002008BD003C0240034A11684F
:10054800034B1B780B441360704700BF2800002042
:1005580000000020014B1868704700BF28000020E9
:1005680038B50446FFF7F6FF0546B4F1FF3F02D061
:10057800044B1B781C44FFF7EDFF401BA042FAD345
:1005880038BD00BF00000020074AD36823F4E063A9
:100598001B041B0C000200F4E060184340F0BF602D
:1005A80040F40030D060704700ED00E030B4174BE5
:1005B800DB68C3F30223C3F10704042C28BF042417
:1005C8001D1D062D18D9033B4FF0FF3505FA04F41D
:1005D80021EA0401994005FA03F322EA03031943C7
:1005E80000280BDB0901C9B200F1604000F5614049
:1005F80080F8001330BC70470023E5E700F00F00D7
:100608000901C9B2024B1954F4E700BF00ED00E03C
:1006180014ED00E00138B0F1807F0AD2064B586033
:10062800064AF02182F823100020986007221A60F9
:1006380070470120704700BF10E000E000ED00E0C7
:1006480000230F2B00F2D780F0B583B039E00722E2
:1006580000E00022AA403A430234674D45F82420BE
:10066800664A1468F24302EA04054F6817F4803FAB
:1006780001D046EA0405614C2560646802EA040575
:100688004F6817F4003F01D046EA04055B4C6560EB
:10069800A46802EA04054F6817F4801F01D046EAEF
:1006A8000405564CA560E46822404D6815F4001F07
:1006B80001D046EA0402514CE26001330F2B00F2EC
:1006C800988001229A400C6804EA0206B242F4D1EA
:1006D8004C68651E012D03D9112C01D0122C12D1A2
:1006E80085685F000324BC4025EA0405CC68BC404B
:1006F8002C438460456825EA02054C68C4F300125F
:100708009A402A434260C4685F000322BA40D24339
:1007180014408D68BD402543C5604C68022C01D04B
:10072800122C13D1DD08083550F825E003F0070432
:100738004FEA840C0F2404FA0CF42EEA040E0C6918
:1007480004FA0CF444EA0E0440F8254004682240F8
:100758004C6804F00304BC40224302604A6812F06B
:10076800805FAAD000220192254A546C44F4804448
:100778005464526C02F480420192019A9C08A51CB0
:100788001D4A52F8257003F0030295000F22AA4073
:1007980027EA02071B4A90423FF45BAF02F58062EA
:1007A80090421AD002F58062904218D002F5806219
:1007B800904216D002F58062904214D002F5806211
:1007C800904212D002F58062904210D002F5806209
:1007D80090423FF43CAF08223CE701223AE702226C
:1007E80038E7032236E7042234E7052232E70622F7
:1007F80030E703B0F0BD704700380140003C0140CD
:10080800003802400000024012B9090481617047B3
:1008180081617047436931EA030301D08161704700
:1008280009048161704703685A6912F4806F11D016
:100838006FF480625A6100230363202280F83D2010
:1008480080F83E30026C42F00402026480F83C30CA
:100858000120704700207047F8B506460C46174639
:100868001D4622E0FFF776FE069BC01AA84200D874
:10087800DDB900233363202286F83D2086F83E3018
:10088800326C42F02002326486F83C3001201AE0D3
:1008980033685B6924EA03039BB2B3FA83F35B0909
:1008A8009F420FD1B5F1FF3FDCD1C4F30743012BC1
:1008B800EED033689B6924EA03039BB2B3FA83F34F
:1008C8005B09EDE70020F8BDF8B504460D4616466D
:1008D8001F463CE01A6842F400721A6023686FF4FD
:1008E80080625A6100232363202284F83D2084F823
:1008F8003E30226C42F00402226484F83C3001202D
:1009080033E0FFF727FEC01BB04200D8FEB9002332
:100918002363202284F83D2084F83E30226C42F084
:100928002002226484F83C3001201EE023685B69C1
:1009380025EA03039BB2003318BF0123A3B1236840
:100948005A6912F4806FC5D1B6F1FF3FD9D1C5F30A
:100958000743012BEAD023689B6925EA03039BB26E
:10096800003318BF0123E9E70020F8BD70B504463D
:100978000D46164623685B6913F0800F1CD120468C
:10098800FFF751FFD0B9B5F1FF3FF3D0FFF7E2FD14
:10099800801BA84201D8002DECD10023236320221C
:1009A80084F83D2084F83E30226C42F02002226414
:1009B80084F83C30012000E0002070BD0120FCE7F5
:1009C8002DE9F04184B004460E46174698460B9D23
:1009D8000268136843F4806313600268136843F481
:1009E8008073136000950A9B00224FF00111FFF7F6
:1009F80033FF68B123681B6813F4807F00F0898097
:100A08004FF4007323640323184604B0BDE8F08153
:100A1800F6B2236806F0FE021A612B460A9A3F498D
:100A28002046FFF751FF08B10123EDE700230393A8
:100A380023685A6903929B690393039B2A460A9980
:100A48002046FFF793FF58B1236C042B01D00123F4
:100A5800DAE72268136843F4007313600123D3E7CD
:100A6800B8F1010F0DD12368FFB21F612A460A9918
:100A78002046FFF77BFF20B3236C042B1AD00123F9
:100A8800C2E723683A0A1A612A460A992046FFF7FC
:100A98006DFF58B1236C042B01D00123B4E7226801
:100AA800136843F4007313600123ADE72368FFB2B2
:100AB8001F61DBE72268136843F4007313600123A6
:100AC800A2E72268136843F48073136000950A9BB9
:100AD80000224FF001112046FFF7BEFE48B12368FF
:100AE8001B6813F4807F16D04FF40073236403232C
:100AF8008AE7236846F001061E612B460A9A0749D1
:100B08002046FFF7E1FE034600283FF47DAF0123AE
:100B18007AE7032378E7032376E700BF02000100A2
:100B280070B505460C4616462B685A6912F0400FF8
:100B380029D15A6912F0100F15D1FFF70BFD801B50
:100B4800A04201D8002CEFD100232B63202285F886
:100B58003D2085F83E302A6C42F020022A6485F850
:100B68003C30012070BD6FF010025A6100232B63E6
:100B7800202285F83D2085F83E302A6C2A6485F8C5
:100B88003C300120EEE70020ECE70000002800F0F0
:100B9800C880F8B5044690F83D30002B75D0242362
:100BA80084F83D302268136823F00103136022683B
:100BB800136843F4004313602268136823F4004366
:100BC800136000F03DFD6268584B9A4262D8584B5A
:100BD80098428CBF00230123002B40F0A480554B82
:100BE800A3FB00239B0C21684A6822F03F021A43AA
:100BF8004A6025682A6A22F03F0266684B498E429D
:100C08004ED8013313432B622568E96921F44F411B
:100C180021F0FF016368454A93424BD801385B00D5
:100C2800B0FBF3F30133C3F30B03042B38BF0423E6
:100C38000B43EB6121680B6823F0C003E269206A6B
:100C4800024313430B6021688B6823F4034323F0AA
:100C5800FF032269E068024313438B602168CB6875
:100C680023F0FF036269A06902431343CB60226843
:100C7800136843F00103136000202064202384F8E4
:100C88003D30206384F83E00F8BD80F83C3001F028
:100C9800BFF884E7284B98428CBF002301239BE7C9
:100CA8004FF4967101FB03F32449A1FB03139B093D
:100CB8000133A7E7A268BAB9461E03EB4307B6FBA0
:100CC800F7F60136C6F30B06B6FA86F6760936BB92
:100CD800C2B9013803EB4303B0FBF3F30133C3F3A9
:100CE8000B0242F40043A3E7461E03EB830707EB1E
:100CF8008707B6FBF7F60136C6F30B06B6FA86F693
:100D08007609E4E7013803EB830303EB8303B0FBC5
:100D1800F3F20132C2F30B0242F4404388E70123A5
:100D280086E7012070470120AEE700BFA0860100DA
:100D38007F841E0083DE1B43FF083D00D34D6210F5
:100D48002DE9F04186B004460E4617469846FFF74F
:100D580001FC94F83D30DBB2202B04D0022630464B
:100D680006B0BDE8F08105460090192301229E498E
:100D78002046FFF771FD002840F0348194F83C309C
:100D8800012B00F03781012384F83C3023681A686E
:100D980012F0010F03D11A6842F001021A602268AA
:100DA800136823F400631360222384F83D30402342
:100DB80084F83E30002323640C9B6362BDF8343012
:100DC8006385638D2385894BE36201950E9B0093B0
:100DD80043463A4631462046FFF7F2FD06460028CC
:100DE80040F00A81238D5BB9029323685A69029205
:100DF8009A690292029A1A6842F400721A6072E0C2
:100E0800012B0AD0022B1AD00023059323685A69B4
:100E180005929B690593059B65E02268136823F496
:100E2800806313600023039323685A6903929A69C5
:100E38000392039A1A6842F400721A6053E0226817
:100E4800136823F4806313602268136843F4006313
:100E580013600023049323685A6904929B690493DE
:100E6800049B40E02A460E992046FFF759FE0028C9
:100E780040F0C48023681A69636A1A70636A013390
:100E88006362238D013B2385638D013B9BB26385A0
:100E980029E000950E9B002255492046FFF7DCFC0F
:100EA800002840F0AD802268136843F40073136093
:100EB80023681A69636A1A70626A531C6362238D15
:100EC800013B2385638D013B9BB2638523681B69C6
:100ED8005370636A01336362238D013B2385638DFD
:100EE800013B9BB26385238D002B72D0032B49D81D
:100EF800012BB7D0022BCCD000950E9B00223C4989
:100F08002046FFF7A9FC00287CD12268136823F447
:100F18008063136023681A69636A1A70636A01330D
:100F28006362238D013B2385638D013B9BB26385FF
:100F380000950E9B00222E492046FFF78DFC0028C5
:100F480062D12268136843F40073136023681A6936
:100F5800636A1A70626A531C6362238D013B23859E
:100F6800638D013B9BB2638523681B695370636A79
:100F780001336362238D013B2385638D013B9BB263
:100F88006385B0E72A460E992046FFF7C9FD002879
:100F98003CD123681A69636A1A70626A531C6362D7
:100FA800238D013B2385638D013B9BB263852368B9
:100FB800596911F0040F96D01B695370636A0133A5
:100FC8006362238D013B2385638D013B9BB263855F
:100FD80089E7202384F83D30002384F83E3084F8E4
:100FE8003C30BCE60226BAE6020010000000FFFF13
:100FF800040001000226B2E60126B0E60126AEE6AC
:101008000126ACE60126AAE60126A8E60126A6E600
:10101800002800F0E48170B582B00446036813F03C
:10102800010F3BD0A74B9B6803F00C03042B2CD07B
:10103800A44B9B6803F00C03082B21D06368B3F51D
:10104800803F4FD0B3F5A02F52D09E4B1A6822F4A0
:1010580080321A601A6822F480221A606368002BB2
:1010680050D0FFF777FA0546964B1B6813F4003FFC
:1010780014D1FFF76FFA401B6428F5D90320B3E1B8
:10108800904B5B6813F4800FD8D08E4B1B6813F419
:10109800003F03D06368002B00F0A381236813F09E
:1010A800020F55D0874B9B6813F00C0F3ED0854B31
:1010B8009B6803F00C03082B33D0E368002B68D03F
:1010C800814B01221A60FFF745FA05467D4B1B68E4
:1010D80013F0020F54D1FFF73DFA401B0228F5D94F
:1010E800032081E1774A136843F480331360B5E73E
:1010F800744B1A6842F480221A601A6842F48032EB
:101108001A60ABE7FFF726FA05466E4B1B6813F427
:10111800003FC3D0FFF71EFA401B6428F5D903200F
:1011280062E1684B5B6813F4800FC6D1654B1B689E
:1011380013F0020F04D0E368012B01D0012053E122
:10114800604A136823F0F803216943EAC103136076
:10115800236813F0080F40D0636963B35B4B012227
:101168001A60FFF7F7F90546564B5B6F13F0020F4D
:1011780033D1FFF7EFF9401B0228F5D9032033E1FB
:10118800504A136823F0F803216943EAC103136046
:10119800DEE74D4B00221A60FFF7DCF90546494BA4
:1011A8001B6813F0020FD3D0FFF7D4F9401B0228B5
:1011B800F5D9032018E1454B00221A60FFF7CAF958
:1011C8000546404B5B6F13F0020F06D0FFF7C2F9DC
:1011D800401B0228F5D9032006E1236813F0040F09
:1011E80079D0384B1B6C13F0805F33D10023019307
:1011F800344B1A6C42F080521A641B6C03F0805313
:101208000193019B0125324B1B6813F4807F23D087
:10121800A368012B34D0052B38D02A4B1A6F22F043
:1012280001021A671A6F22F004021A67A368002BDA
:1012380036D0FFF78FF90646224B1B6F13F0020FCB
:1012480048D1FFF787F9801B41F288339842F3D9D8
:101258000320C9E00025D6E71D4A136843F48073CC
:101268001360FFF777F90646194B1B6813F4807F64
:10127800CED1FFF76FF9801B0228F5D90320B3E020
:10128800104A136F43F001031367CFE70D4B1A6F32
:1012980042F004021A671A6F42F001021A67C5E7A2
:1012A800FFF758F90646074B1B6F13F0020F11D0D2
:1012B800FFF750F9801B41F288339842F3D9032095
:1012C80092E000BF0038024000004742800E4742CB
:1012D80000700040EDB9A369002B00F08480454AF6
:1012E800926802F00C02082A51D0022B17D0424B08
:1012F80000221A60FFF72EF904463E4B1B6813F0D4
:10130800007F42D0FFF726F9001B0228F5D90320F9
:101318006AE0384A136C23F080531364DBE7364BDA
:1013280000221A60FFF716F90546324B1B6813F0C6
:10133800007F06D0FFF70EF9401B0228F5D90320DD
:1013480052E0E369226A1343626A43EA8213A26A9B
:101358005208013A43EA0243E26A43EA0263254A31
:101368005360254B01221A60FFF7F4F80446214B1D
:101378001B6813F0007F06D1FFF7ECF8001B02286A
:10138800F5D9032030E000202EE000202CE0012BCE
:101398002CD0184B9B6803F48001E269914201D07C
:1013A800012021E003F03F02216A8A4201D0012096
:1013B8001AE0616A47F6C0721A408A4201D00120D9
:1013C80012E003F44032A16A8A4201D001200BE006
:1013D80003F07063E26A93420AD0012004E001201E
:1013E8007047012000E0002002B070BD0120FBE73B
:1013F8000020F9E70038024060004742324B9B6802
:1014080003F00C03042B5CD0082B01D02F48704745
:101418002DE9F04B2C4B5A6802F03F025B6813F43D
:10142800800F2BD0284B5B68C3F388131E46002718
:101438005C010025E41A65EB0705A90141EA9461FE
:10144800A001001B61EB0501CB0043EA5073C40007
:10145800A01943EB07014B0243EAD053440220464C
:1014680019460023FEF7ACFE174B5B68C3F3014334
:1014780001335B00B0FBF3F0BDE8F08B124B5B6807
:10148800C3F388131E4600275C010025E41A65EBA8
:101498000705A90141EA9461A001001B61EB050160
:1014A800CB0043EA5073C400A01943EB07018B0239
:1014B80043EA90538402204619460023FEF780FE33
:1014C800D2E70348704700BF003802400024F40008
:1014D80000127A00002800F09E8070B50446504B38
:1014E8001B6803F00F038B4209D2CBB24C4A13702E
:1014F800136803F00F038B4201D0012070BD2368ED
:1015080013F0020F17D013F0040F04D0454A936864
:1015180043F4E0539360236813F0080F04D0414A62
:10152800936843F4604393603E4A936823F0F00362
:10153800A068034393600D46236813F0010F32D06F
:101548006368012B21D09A1E012A25D9354A1268D1
:1015580012F0020F61D033498A6822F00302134364
:101568008B60FEF7F7FF06462E4B9B6803F00C03D3
:101578006268B3EB820F16D0FEF7ECFF801B41F2D6
:1015880088339842F0D90320B8E7264A126812F443
:10159800003FE0D10120B1E7224A126812F0007F33
:1015A800D9D10120AAE71E4B1B6803F00F03AB42F9
:1015B80009D9EAB21A4B1A701B6803F00F03AB4241
:1015C80001D001209AE7236813F0040F06D0154ACA
:1015D800936823F4E053E1680B439360236813F0A6
:1015E800080F07D00F4A936823F46043216943EA40
:1015F800C1039360FFF702FF0A4B9B68C3F3031311
:10160800094AD35CD840094B1860094B1868FEF7A3
:1016180057FF002072E70120704701206EE700BFE6
:10162800003C024000380240A420000808000020C6
:1016380004000020014B1868704700BF0800002014
:1016480008B5FFF7F7FF044B9B68C3F38223034AEF
:10165800D35CD84008BD00BF00380240B420000861
:1016680008B5FFF7E7FF044B9B68C3F34233034A0F
:10167800D35CD84008BD00BF00380240B420000841
:101688002DE9F04B04460268136923F44053C168FE
:101698000B43136183680269134342691343C269A8
:1016A8001A430168CB6823F4164323F00C03134351
:1016B800CB600268536923F4407381690B4353611B
:1016C800C369B3F5004F3BD00368714A934200F0F9
:1016D800AB8002F58062934200F0A680FFF7B0FF6E
:1016E8004FF00009061849EB090716EB000B47EB0A
:1016F800090C4FEACC0343EA5B734FEACB029346EB
:101708009C4663689A009B0F10EB0B0049EB0C0199
:10171800FEF756FD5F4DA5FB00325109642202FB1E
:10172800110213013233A5FB03235B0903F0F00216
:1017380002EB011203F00F03216813448B60A4E04D
:101748000368534A934239D002F58062934235D0F8
:10175800FFF776FF83464FF0000C06184CEB0C079A
:1017680016EB000847EB0C094FEAC90343EA587324
:101778004FEAC8029046994662680021921841EBE8
:1017880001031BEB08004CEB0901FEF719FD414D65
:10179800A5FB00325109642202FB1102D300323347
:1017A800A5FB03235B095A0002F4F87202EB01124D
:1017B80003F00703216813448B6066E0FFF750FFCE
:1017C80080464FF00009061849EB090716EB000B95
:1017D80047EB090C4FEACC0343EA5B734FEACB02B1
:1017E80093469C4662680021921841EB010318EB6E
:1017F8000B0049EB0C01FEF7E3FC264DA5FB00327C
:101808005109642202FB1102D3003233A5FB0323E2
:101818005B095A0002F4F87202EB011203F00703A5
:10182800216813448B6030E0FFF71AFF4FF000097E
:10183800061849EB090716EB000B47EB090C4FEAB2
:10184800CC0343EA5B734FEACB0293469C4663683A
:101858009A009B0F10EB0B0049EB0C01FEF7B0FC54
:101868000C4DA5FB00325109642202FB1102130141
:101878003233A5FB03235B0903F0F00202EB0112EC
:1018880003F00F03216813448B60BDE8F08B00BFA1
:10189800001001401F85EB512DE9F04105460F4628
:1018A80016469846069C2B681B6837EA03030CBF4C
:1018B80001230023B3421DD1B4F1FF3FF3D02CB173
:1018C800FEF748FEA0EB0800A042ECD92A68D368CE
:1018D80023F4D073D3602A68536923F0010353615A
:1018E800202385F8393085F83A30002385F83830D8
:1018F800032000E00020BDE8F08158B310B504468D
:1019080090F839300BB3242384F839302268D3682F
:1019180023F40053D3602046FFF7B2FE2268136910
:1019280023F4904313612268536923F02A03536117
:101938002268D36843F40053D3600020E063202377
:1019480084F8393084F83A3010BD80F8383000F027
:1019580097FAD8E7012070472DE9F04383B01E4677
:1019680090F83930DBB2202B56D104460D4690460C
:10197800002956D0002A56D090F83830012B54D080
:10198800012380F838304FF00009C0F83C9021233B
:1019980080F83930FEF7DEFD0746A4F82480A4F865
:1019A800268084F8389010E000963B46002280217B
:1019B8002046FFF771FF002839D12B882268C3F32E
:1019C800080353602369C3B90235E38C9BB2B3B1F2
:1019D800E38C013B9BB2E384A368B3F5805FE3D05B
:1019E80000963B46002280212046FFF755FF00BBAA
:1019F8002A7823685A600135E7E70135E5E700965C
:101A08003B46002240212046FFF746FF034690B997
:101A1800202284F8392000E00223184603B0BDE8EC
:101A2800F0830123F9E70123F7E70223F5E703230E
:101A3800F3E70323F1E70323EFE700002DE9F04F75
:101A48008DB000240794089409940A940B94019487
:101A5800704B1A6B42F010021A631A6B02F01002F4
:101A68000192019A02941A6B42F004021A631A6BEB
:101A780002F004020292029A03941A6B42F0800266
:101A88001A631A6B02F080020392039A04941A6B89
:101A980042F001021A631A6B02F001020492049ADE
:101AA80005941A6B42F002021A631A6B02F00202E2
:101AB8000592059A06941A6B42F008021A631B6B8A
:101AC80003F008030693069B224608215248FEF7B6
:101AD8009BFEDFF85481012211464046FEF794FE32
:101AE80022464FF210014D48FEF78EFE0825079555
:101AF8000127089709940A9407A94748FEF7A0FD0B
:101B08000797089709940A9407A94046FEF798FD95
:101B180007950225089509940A944FF00509CDF810
:101B28002C9007A94046FEF78BFD0797DFF8FCA02D
:101B3800CDF820A009943A4E07A93046FEF780FD5B
:101B480010230793089509940A944FF0060BCDF8D3
:101B58002CB007A93046FEF773FDE02307930895DC
:101B680009940A94CDF82C9007A93046FEF768FD31
:101B7800042307930894099407A92A48FEF760FDEF
:101B88004FF480630793089509940A94CDF82C9034
:101B980007A92448FEF754FD4FF21003079308974E
:101BA80009940A9407A91D48FEF74AFD4FF4A45367
:101BB8000793089509940A94CDF82CB007A94046D4
:101BC800FEF73EFD4FF4007307930894099407A9A4
:101BD8003046FEF735FD4FF4E05307930895099416
:101BE8000A940A230B9307A93046FEF729FD202300
:101BF80007930894099407A90848FEF721FD07955B
:101C0800CDF820A0099407A90348FEF719FD0DB0E7
:101C1800BDE8F08F0038024000100240000C02407E
:101C280000000240000402400008024000001210B8
:101C380008B50948094B0360094B436000238360DA
:101C4800C3604FF48042026143618361C3610362F0
:101C5800FEF79CFF08BD00BF2C0000200054004088
:101C6800A086010008B50848084B03604FF4E1332B
:101C7800436000238360C36003610C224261836177
:101C8800C361FFF73AFE08BD900000200044004001
:101C980030B595B03022002108A800F0ADF9002435
:101CA8000394049405940694079401941B4B1A6CAE
:101CB80042F080521A641B6C03F080530193019B1D
:101CC8000294174B1A6842F480421A601B6803F4A6
:101CD80080430293029B0225089501230B9310234E
:101CE8000C930E950F940823109332231193042319
:101CF80012930723139308A8FFF78AF90F23039376
:101D0800049505944FF4C05306934FF4A0530793DA
:101D1800214603A8FFF7DEFB15B030BD00380240AE
:101D28000070004000B583B0FEF7EEFBFFF7B0FF90
:101D3800FFF784FEFFF77CFFFFF794FF0D2000F00C
:101D480013F81022694600F055F9684600F024F8A7
:101D58004FF480510348FEF75DFD4FF4FA70FEF72B
:101D6800FFFBEBE7000C024000B587B006AB002292
:101D780023F8022D64220292022201920093012389
:101D8800024678210348FEF7DBFFBDF8160007B0CE
:101D98005DF804FB2C00002010B5044607E04FF660
:101DA800FF73012221460848FFF7D6FD0134237846
:101DB800002BF4D14FF6FF730122044989B202487F
:101DC800FFF7CAFD10BD00BF90000020BC2000082E
:101DD80000B583B0002100910C4B5A6C42F480424C
:101DE8005A645A6C02F480420092009A01911A6C6B
:101DF80042F080521A641B6C03F080530193019BDC
:101E08000720FEF7C1FB03B05DF804FB0038024071
:101E180030B589B000230393049305930693079381
:101E28000268144B9A4201D009B030BD00250195D3
:101E3800114C236B43F002032363236B03F002036B
:101E48000193019B4FF4107303931223049301230E
:101E580005930423079303A90848FEF7F1FB0295AD
:101E6800236C43F400132364236C03F400130293DC
:101E7800029BD9E7005400400038024000040240A9
:101E880000B589B000230393049305930693079341
:101E98000268164B9A4202D009B05DF804FB002193
:101EA800019103F5FA331A6C42F400321A641A6C81
:101EB80002F400320192019A02911A6B42F0010277
:101EC8001A631B6B03F001030293029B0C23039319
:101ED80002230493012305930323069307230793FF
:101EE80003A90348FEF7ACFBD6E700BF0044004057
:101EF800000002407047FEE7FEE7FEE7FEE7704796
:101F08007047704708B5FEF719FB08BD054BD3F8B5
:101F1800882042F47002C3F888204FF000629A606B
:101F2800704700BF00ED00E0DFF834D0002103E087
:101F38000C4B5B58435004310B480C4B42189A42E7
:101F4800F6D30B4A02E0002342F8043B094B9A42BD
:101F5800F9D3FFF7DBFF00F011F8FFF7E3FE704756
:101F680000000220F8200008000000200C000020DB
:101F78000C000020D0000020FEE7000070B50D4ED8
:101F88000D4CA41BA4100025A54209D10B4E0C4CE6
:101F980000F078F8A41BA4100025A54205D170BD57
:101FA80056F8253098470135EEE756F8253098471A
:101FB8000135F2E7F0200008F0200008F0200008C2
:101FC800F4200008931E222B10B50C4604D90023D8
:101FD8000B701C46204610BD0A2A09D1002807DAD2
:101FE8002D230B7040420121214400F00DF8F1E748
:101FF8000021F9E7FFF7E6BF02440346934200D108
:10200800704703F8011BF9E7F0B51D4B8BB0054687
:102018000C466E4603F1200C18685968374603C70A
:10202800083363453E46F7D118681B793B71931E08
:10203800222B38604FF0000304D923701C46204639
:102048000BB0F0BD661EB5FBF2F00AAF02FB1055EF
:102058003D44591C15F8285C06F8015F054668B927
:10206800605423442246191B101B8142E7DD117876
:10207800187802F8010B03F80119F4E70B46E2E7B8
:10208800C0200008F8B500BFF8BC08BC9E467047E1
:0C209800F8B500BFF8BC08BC9E467047BD
:1020A4000000000000000000010203040607080904
:1020B40000000000010203040A0000003031323342
:1020C4003435363738396162636465666768696ACE
:1020D4006B6C6D6E6F707172737475767778797AD4
:0420E40000000000F8
:0820E80010E1FF7F0100000080
:0420F000AD01000836
:0420F4008901000856
:0C20F80001000000100000000024F400B3
:0400000508001F319F
:00000001FF
